:020000041000EA
:1000000000B5324B212058609868022188439860DF
:10001000D860186158612E4B002199600221596106
:100020000121F02299502B49196001219960352056
:1000300000F044F80222904214D00621196600F024
:1000400034F8196E01211966002018661A6600F04E
:100050002CF8196E196E196E052000F02FF8012189
:100060000842F9D1002199601B49196000215960AB
:100070001A491B48016001219960EB211966A021F2
:10008000196600F012F800219960164914480160C1
:100090000121996001BC002800D000471248134993
:1000A000086003C880F30888084703B5996A0420EC
:1000B0000142FBD001200142F8D103BD02B5186610
:1000C0001866FFF7F2FF186E186E02BD00000240BE
:1000D000000000180000070000035F00212200005C
:1000E000F4000018222000A00001001008ED00E03C
:1000F00000000000000000000000000074B24E7A12
:1001000000000420E3010010C3010010E903001007
:10011000C1010010C1010010C1010010C101001097
:10012000C1010010C1010010C10100104503001001
:10013000C1010010C1010010C9030010D503001057
:10014000CD010010CD010010CD010010CD01001037
:10015000CD010010CD010010CD010010CD01001027
:10016000CD010010CD010010CD010010CD01001017
:10017000CD010010CD010010CD010010CD01001007
:10018000CD010010CD010010CD010010CD010010F7
:10019000CD010010CD010010CD010010CD010010E7
:1001A000CD010010CD010010CD010010CD010010D7
:1001B000CD010010CD010010CD010010CD010010C7
:1001C00000BE00BE00BE00BE00BE00BE00F03FF894
:1001D000103800BE00202049086006C881F3088856
:1001E00010471E48006800282DD10CA40ECC002911
:1001F00002D000F010F8F9E719491A4A002000E08F
:1002000001C19142FCD1184988471849884700BE6E
:10021000FDE701C901C29A42FBD37047FCFC011003
:10022000C0000020441100208C0D021000000420AA
:10023000000004208C0D0210001004200010042087
:100240000000000070470A4810F0D4FC0047EFF3AC
:100250000580C0B27047000008ED00E0000000D04B
:100260005011002004AF0020CD020010E1E5001085
:1002700057560000F8B5C046F8BC08BC9E4670470B
:10028000F8B5C04610B5064C2378002B07D1054BB6
:10029000002B02D0044800E000BF0123237010BDF2
:1002A000A01600200000000084020010044B10B5CE
:1002B000002B03D00349044800E000BF10BDC04636
:1002C00000000000A416002084020010164B002B32
:1002D00000D1144B9D46402292029A1A9246002168
:1002E0008B460F461348144A121A12F093FC0F4B18
:1002F000002B00D098470E4B002B00D098470020D1
:10030000002104000D000D48002802D00C480EF01A
:100310006AF911F0EFFF200029000AF0F1F90EF060
:100320005FF9C04600000800000004200000000043
:1003300061A600105011002004AF0020E7E5001076
:10034000000000007046C0082CD3EFF309808169DB
:1003500002390978002929D101B50FC8B8470CBC6A
:1003600003C29E461E4B06CB91421ED0083B1A602C
:10037000002909D0EFF3098020388863F0C0444693
:100380004D4656465F46F0C0906B1030F0C8A04610
:10039000A946B246BB4680F309882038F0C802203F
:1003A000C0430047EFF30880D1E770470D4A136858
:1003B0009942FAD801B5890053589C460FC8E047C6
:1003C0000CBC10609E46704701B509F00FFC03BCE1
:1003D0008E46C7E701B509F0C7FB03BC8E46C1E7EF
:1003E0005C050020B4CE0110102304E0202302E0BD
:1003F000302300E040239C46F0B404AE7546E80884
:1004000001D3EFF309860E4F0FCE0FC70FBC0FC7F6
:100410004046494652465B460FC71DCE3100A60AEC
:1004200000D304316E0900D248311FC7EFF30980B1
:100430006946EFF3148663C7604601490DF078FC06
:1004400074AE002001480421014B184760070020CA
:10045000050C011002B471464908490009564900CB
:100460008E4402BC7047C04602B471464908490038
:10047000095C49008E4402BC7047C0460022430814
:100480008B4274D303098B425FD3030A8B4244D35C
:10049000030B8B4228D3030C8B420DD3FF2209029E
:1004A00012BA030C8B4202D31212090265D0030B5D
:1004B0008B4219D300E0090AC30B8B4201D3CB0353
:1004C000C01A5241830B8B4201D38B03C01A524195
:1004D000430B8B4201D34B03C01A5241030B8B4297
:1004E00001D30B03C01A5241C30A8B4201D3CB0282
:1004F000C01A5241830A8B4201D38B02C01A524167
:10050000430A8B4201D34B02C01A5241030A8B4269
:1005100001D30B02C01A5241CDD2C3098B4201D381
:10052000CB01C01A524183098B4201D38B01C01AFF
:10053000524143098B4201D34B01C01A5241030976
:100540008B4201D30B01C01A5241C3088B4201D325
:10055000CB00C01A524183088B4201D38B00C01AD2
:10056000524143088B4201D34B00C01A5241411AF9
:1005700000D20146524110467047FFE701B5002006
:1005800000F0F0F802BDC0460029F7D076E77047CA
:1005900003460B437FD4002243088B4274D30309E4
:1005A0008B425FD3030A8B4244D3030B8B4228D385
:1005B000030C8B420DD3FF22090212BA030C8B42AB
:1005C00002D31212090265D0030B8B4219D300E04B
:1005D000090AC30B8B4201D3CB03C01A5241830BD0
:1005E0008B4201D38B03C01A5241430B8B4201D380
:1005F0004B03C01A5241030B8B4201D30B03C01AA9
:100600005241C30A8B4201D3CB02C01A5241830A22
:100610008B4201D38B02C01A5241430A8B4201D351
:100620004B02C01A5241030A8B4201D30B02C01A7B
:100630005241CDD2C3098B4201D3CB01C01A5241E2
:1006400083098B4201D38B01C01A524143098B426B
:1006500001D34B01C01A524103098B4201D30B0154
:10066000C01A5241C3088B4201D3CB00C01A524179
:1006700083088B4201D38B00C01A524143088B423E
:1006800001D34B00C01A5241411A00D201465241D7
:10069000104670475DE0CA0F00D04942031000D3F6
:1006A0004042534000229C4603098B422DD3030A4B
:1006B0008B4212D3FC22890112BA030A8B420CD35B
:1006C000890192118B4208D3890192118B4204D384
:1006D00089013AD0921100E08909C3098B4201D304
:1006E000CB01C01A524183098B4201D38B01C01A3E
:1006F000524143098B4201D34B01C01A52410309B5
:100700008B4201D30B01C01A5241C3088B4201D363
:10071000CB00C01A524183088B4201D38B00C01A10
:100720005241D9D243088B4201D34B00C01A5241E7
:10073000411A00D20146634652415B10104601D374
:100740004042002B00D54942704763465B1000D3FE
:10075000404201B5002000F005F802BD0029F8D0A4
:1007600016E770477047C046D0400B1CD1409C46EE
:10077000203AD3401843524263469340184370478F
:100780009140031C90409C46203A934019435242AA
:100790006346D340194370478446101C62468C461A
:1007A000191C634600E0C0461FB501F0CBFA0028D3
:1007B00001D40021C8421FBD10B501F023FA404208
:1007C000013010BD10B501F0BDFA002801DB00209A
:1007D00010BD012010BDC04610B501F0B3FA0028CD
:1007E00001DD002010BD012010BDC04610B501F094
:1007F00045FA002801DC002010BD012010BDC046D4
:1008000010B501F03BFA002801DA002010BD0120EC
:1008100010BDC0468446081C6146FFE71FB500F0C6
:1008200031FA002801D40021C8421FBD10B500F0E4
:10083000B3F94042013010BD10B500F023FA002892
:1008400001DB002010BD012010BDC04610B500F036
:1008500019FA002801DD002010BD012010BDC0469E
:1008600010B500F0C1F9002801DC002010BD012006
:1008700010BDC04610B500F0B7F9002801DA00201D
:1008800010BD012010BDC0461C2101231B0498424D
:1008900001D3000C10391B0A984201D3000A083911
:1008A0001B09984201D30009043902A2105C4018C8
:1008B0007047C0460403020201010101000000006C
:1008C00000000000002B15D1002A13D1002906DBFF
:1008D00001DC002806D00020C043410802E080214E
:1008E0000906002007B4024801A14018029003BD88
:1008F00075FEFFFF03B4684601B5029800F030F9B9
:10090000019B9E4602B00CBC7047C046002B11D123
:10091000002A0FD1002900D1002802D00021C943AC
:10092000081C07B4024802A14018029003BDC0464B
:1009300035FEFFFF03B4684601B5029800F04EF89B
:10094000019B9E4602B00CBC7047C046F0B5CE4637
:10095000474615042D0C2E0080B50704140C3F0CDF
:100960009946030C7E435D43674363437F19340C10
:10097000E4199C46A54203D980235B029846C444EF
:100980004B4643435143250C36046544360C24043E
:10099000A4195B19591820000CBC90469946F0BD6B
:1009A00070B500220C4B04000D00FFF729FF002852
:1009B00004D12000290002F003F870BD064B00228C
:1009C0002000290001F098FC01F0FAFF80231B06AB
:1009D0009C466044F1E7C0460000E041F0B54F4658
:1009E0004646D646C0B5040082B00D0091469846F2
:1009F0008B422FD82CD04146484602F059F92900A5
:100A00000600200002F054F9331A9C46203B9A4617
:100A100000D576E04B46524693401F004B46624657
:100A200093401E00AF4228D825D05346A41BBD4199
:100A3000002B00DA7BE000220023009201930123C7
:100A4000524693400193012362469340009318E07D
:100A50008242D0D900220023009201930A9B002BEE
:100A600001D01C605D600098019902B01CBC9046EA
:100A70009946A246F0BDA342D7D900220023009296
:100A800001936346002BE9D0FB0798464146720864
:100A90000A437B0866460EE0AB4201D1A2420CD865
:100AA000A41A9D41012024196D410021013E241802
:100AB0004D41002E06D0AB42EED9013E24196D41C6
:100AC000002EF8D100980199534600196941002B76
:100AD00023DB2B005246D3402A006446E2401C0030
:100AE00053461500002B2DDB26005746BE40330031
:100AF00026006746BE403200801A9941009001915D
:100B0000ACE7624620239B1A4A46DA40614613004E
:100B100042468A4017001F4380E7624620239B1A03
:100B20002A0066469A402300F3401343D4E7624606
:100B3000202300219B1A0022009101920122DA4019
:100B4000019280E72023624626009B1ADE402F0098
:100B5000B0466646B74046463B003343C8E7C0460A
:100B6000F0B583B016001F000090019102F0ACF8C0
:100B700004000D0002000B0030003900FFF7E6FE14
:100B8000009A019B121A8B41089920000A604B6061
:100B9000290003B0F0BDC04670B542004E024C00C3
:100BA00045026D0A120EC30F760A240EC90FFF2AE2
:100BB0000FD0FF2C11D00120A24200D070BDB54251
:100BC000FCD18B420DD0002AF8D12800451EA84147
:100BD000F4E70120002DF1D1EBE70120002EEDD14B
:100BE000E9E70020EAE7C04670B54A004E02450238
:100BF00044006D0A240EC30F760A120EC90FFF2C93
:100C000015D0FF2A0ED0002C15D1002A01D1002EBC
:100C10001CD0002D14D08B4227D00220013B18405D
:100C2000013870BD002EEED002204042F9E7002DC1
:100C3000FAD1FF2A0ED0002A0ED1002EEDD00BE003
:100C400001230139994308000130EAE70020002D13
:100C5000E7D0E2E7002EE7D18B42DED1944205DDFA
:100C60000221581E08400138DBE70024A24204DCC0
:100C7000B542D2D80020B542D3D2581E01239843A2
:100C80000130CEE730B5420044024D02C30F4800A8
:100C9000640A120E6D0A000EC90FFF2A12D0FF2837
:100CA0000CD0002A12D1002819D1002D17D1002C08
:100CB0002BD00220013B1840013826E0002DF0D057
:100CC000022022E0002CFBD1FF281FD000281FD1DA
:100CD000002D1DD10220013B1840013815E0002CE9
:100CE0000ED08B42E5D10022904204DCAC42E0D829
:100CF0000020AC4209D2581E01239843013004E081
:100D00000123013999430800013030BD002DD7D1AE
:100D10008B42CED18242E7DD0221581E08400138C5
:100D2000F3E7C046F0B54E4657464546DE46E0B5C9
:100D300043025B0A450083B00F1C99462D0EC60F77
:100D4000002D57D0FF2D24D08020DB00C004184395
:100D5000002381469A469B467F3D7C027A00FB0F2A
:100D6000640A120E984623D0FF2A4BD0E300802459
:100D70000020E4047F3A1C43AD186B1C47460193E6
:100D8000534677403A000F2B48D87D499B00CB58FB
:100D90009F46002B00D085E008339A46063B9B46D1
:100DA0007C027A00FB0FFF25640A120E9846DBD105
:100DB000002C00D090E0524601231A4392460120B5
:100DC000DBE74C4658461700022824D0032800D100
:100DD000CFE00022002301284DD15802D205400A5D
:100DE000FF071043384303B03CBC90469946A246E7
:100DF000AB46F0BD002B5BD104239A46033B002594
:100E00009B46AAE7FF35002C60D1524602231A43C5
:100E100092460220B1E7FF220023DEE74B461B0C7F
:100E20009C464B462604360C180461463300220CBF
:100E30006446000C43434E435043544380191A0CFC
:100E40001218964203D9802149028C4664441B043F
:100E50001B0C1004C01883015E1EB341800E1843A2
:100E6000130C1B199B0103431C00230179D501239B
:100E700062081C401443019A7F32002A4DDD63074B
:100E800004D00F232340042B00D00434230103D5C6
:100E90003C4B019A1C408032FE2ABCDCA3015B0A59
:100EA000D2B29AE70C239A46093BFF259B4654E7AA
:100EB0001800FFF7E9FC4A46431F76259A400023B5
:100EC0006D4291462D1A9A469B4646E752460323A9
:100ED0001A439246032050E72000FFF7D5FC431F3A
:100EE0002D1A9C40763D002047E780230027DB0336
:100EF000FF2272E7424666E74C463200584662E7F8
:100F000080234A46DB031A4222D01C4220D12343CD
:100F10005B025B0A4746FF225FE701239A1A1B2AFE
:100F200021DC23000199D3409E318C401A0023001C
:100F30005C1EA34113435A0704D00F221A40042A0F
:100F400000D004335A0111D49B015B0A002244E70C
:100F500080234A46DB0313435B025B0A3700FF2210
:100F60003BE7019587E70022002336E701220023B3
:100F700033E78023DB0323435B025B0AFF222CE77A
:100F80002CB00110FFFFFFF741024200C30F490AD6
:100F9000120E00207E2A0DD99D2A0CD88020000434
:100FA0000143952A0ADC9620821AD1404842002B40
:100FB00000D108007047034A9818FBE7963A914021
:100FC000F4E7C046FFFFFF7FF0B54F464646D646E2
:100FD0000C000903C0B5490A470F5E0039431F03DF
:100FE000DB0F9C4665007B0A570F1F436D0DE40F16
:100FF000760DA146C000B846D200AB1B64457BD03D
:10100000002B5FDD002E00D0A4E03E00164300D18F
:1010100012E15E1E002E00D09EE1871A4346B842C0
:1010200080410125C91A4042091A0B0200D431E15E
:1010300049024E0A002E00D16EE13000FFF724FC79
:101040000300083B1F2B00DD61E120223900D21A8A
:101050009E40D1409F400E439D4200DD51E15D1B0B
:101060006B1C1F2B00DD7CE12021C91A3D003000E4
:101070008F408840DD40791E8F4131000722284390
:10108000D940002507433A40002A09D00F233B40AE
:10109000042B05D03B1DBB42BF417F42C9191F0035
:1010A0000B0200D426E26A1CC64B55056D0D9A4210
:1010B00000D106E1C44AFF080A40530752023B43ED
:1010C000120B8EE0002B00D0B8E06B1C5B055B0DB3
:1010D000012B00DC30E1871A4346B842B641CB1AF7
:1010E00076429E1B330200D54CE13B003343A1D135
:1010F00000220024002570E0002B00DCE5E0002E3B
:1011000000D183E0AF4EB54260D08026360437432D
:10111000B846382B00DC3EE1434613431F007A1EDD
:1011200097413F1887428041404209180B0200D482
:10113000B0E0A44B01359D4200D1C3E0A24A7B0838
:101140000A4001210F401F435108D30707221F43C4
:101150003A4099E79B4EB54238D080263604374353
:10116000B846382B00DDDCE01F2B00DC30E11E0030
:101170004746203EF740BC46202B04D04026F31AB9
:1011800046469E403243170063467A1E97411F43EE
:10119000CCE0002B00D104E24346134300D159E1D7
:1011A0004B07C00818438023C9081B03194208D005
:1011B0004546ED081D4204D14346D008590708436F
:1011C0002900420FC9007F4D1143C0004B07CA08D8
:1011D0007C49C00803438D4268D012036D05120B91
:1011E0006D0D002112031800130B0A0D12051A438E
:1011F000764B2D0513402B435B00E4075B0823432C
:1012000019001CBC90469946A246F0BD3E0016430C
:1012100012D05E1E002E00D000E187188742804168
:1012200041444042091801250B0233D5022585E7C8
:1012300064463300414610001D00C7E7002D00D072
:10124000DAE00C000443F3D05C1C00D19FE15D4C5C
:10125000A64200D12FE1DB43382B00DD66E11F2BD6
:1012600000DD83E120240500E41A0F00DD40D940B1
:10127000A0404346A7405B1A441EA04198462F4316
:101280003843171ABA42924143465242991A644669
:101290003500CAE607223A40002A00D0F6E64B079E
:1012A000CA084849FF083B438D4296D119001143B3
:1012B00000D19EE1802109030A431203120B414D24
:1012C0008FE71500002200238BE7002B00D0C7E03A
:1012D0006B1C5F057F0D012F00DCF1E0394DAB4247
:1012E00000D1B9E085180A0085428941424449424B
:1012F00051180722CF076D082F4349083A401D00B7
:10130000C2E607223049ED1A31403A40BCE63E00C1
:101310002838864000279FE63800FFF7B5FA2030CE
:101320008EE6434613431F007A1E9741C71BB842FF
:1013300080414042091A78E60E003B000643134301
:10134000002D61D1002E00D0F4E0002B00D11BE174
:1013500064463900100039E71A4FBB427AD0330097
:10136000FFE630001F3DE840202B03D04021CB1A80
:101370009E4037437B1E9F41072207433A4000218E
:10138000002589E7171A4346BA42B641591A7642F0
:101390008E1B64464EE61F2B00DDADE0202647463F
:1013A000F61AB740B9461700B246DF404E463E43F4
:1013B00037005646B240561EB24117434246DA4005
:1013C0008918AEE6FF070000FFFF7FFFFFFF0F80D9
:1013D00020264746F61AB740B9461700B246DF4006
:1013E0004E463E4337005646B240561EB241174362
:1013F0004246DA40891A99E77F4CA6425BD08024A6
:1014000024045B42214327E7002E0CD1002B00D19E
:10141000CBE0644639001000774DD7E6764FBB42EB
:1014200018D0330075E6002B14D04B07C0081843C2
:101430008023C9081B03194207D0FC081C4204D1B1
:101440007907D0080843E14621004C46420FC90005
:101450001143C000684DB9E61D0000220023C0E61C
:10146000002D5BD10D00054300D1E2E65D1C00D1EB
:10147000B0E0614DAE421FD0DB43382B71DC1F2B37
:1014800000DD96E020250F00ED1AAF40B9460700B9
:10149000AA46DF404D463D432F005546A840D9405F
:1014A000451EA84188440743BF18974292415142C4
:1014B000414435003AE6644635004146100085E671
:1014C0000B000343002D00D063E6002BF5D043460C
:1014D000134300D17AE687188742804107224144AE
:1014E000404209183A400B0200D4D5E6434B01357F
:1014F0001940C9E5380069E61E004746203EF7401E
:10150000BC46202B04D04026F31A46469E40324368
:10151000170063467A1E97411F4302E6364DAE42DE
:10152000CAD080252D045B422943A6E70843411E0B
:101530008841A6E6002B00D148E6871A4346B84208
:10154000B641CB1A76429E1B33024BD5171A43463F
:10155000BA429241591A5242891A072264463A40C5
:1015600092E501430F00791E8F419DE71C000F009B
:10157000203CE740202B03D04024E31A9940084345
:10158000411E884138437CE60022002425E6171AD4
:101590004346BA429241591A5242891A644635006A
:1015A00043E541461000144D10E68022002412034A
:1015B00080E61D000F00203DEF40BC46202B03D0ED
:1015C0004025EB1A9940084307006346781E87417F
:1015D0001F4369E7871897429B4141445B42C91802
:1015E0003500A3E53B003343CED0072231003A401B
:1015F00052E600231A00F4E5FF070000FFFF7FFF1B
:10160000F0B55746DE464E464546E0B583460700F0
:101610000E03480085B092461C00360B400DCD0FDE
:10162000002800D19DE0954B984239D08023F600E8
:101630001B041E43924A7B0F334399469446030092
:101640006344009300230026FF00029323031B0B37
:1016500098466300E40F52465B0D019400D1B3E05D
:1016600086498B4200D19EE04246D100802212047E
:101670000A435146490F11438B46814952468C46D5
:1016800000996344CB1A0021D20000932B006340E1
:101690009A460F2E00D905E17A4BB6009B599F461A
:1016A0005B463343994600D0B8E002230826002762
:1016B00000900293CAE7CB463A0002990195019B3C
:1016C0009A46022927D0032900D180E2012944D07B
:1016D0006D49009B8C4663441C00002C38DD530789
:1016E00000D013E2D2085B46DB0109D55946674BAF
:1016F00019408B468021C9008C46009B63441C0026
:10170000634B9C4207DC5B4664055F075B02174343
:101710001B0B620D02E000230027584A00211B0327
:101720001C0B0B0D1B05234314055A4A38001340AC
:101730001C4353466400DB0764081C43210005B0CA
:101740003CBC90469946A246AB46F0BD01225242AF
:1017500001231B1B382B00DCADE1002200230027F6
:10176000DCE75B46334399465ED0002E00D18AE128
:101770003000FFF789F803000B3B1C2B00DD7BE1F9
:101780001D22D31A5A460100DA4008398E40130050
:101790005F46334399468F403F4B00261B1A009308
:1017A0000023029352E7414653460B433B499B4675
:1017B0008C46009B634400935B46002B3BD1022385
:1017C00000221E43022161E7434613439B4637D064
:1017D0004346002B00D162E14046FFF755F8030075
:1017E0000B3B1C2B00DD53E102004146083A9140BF
:1017F00088461D21CB1A5146D9400B0041460B4368
:101800009B46534693401A00009B25499C466044E2
:1018100003008C4663440093002137E70323B1465D
:1018200000900C26029311E7002300930133042655
:10183000002702930AE70323C3461E43032125E73B
:1018400001331E430022012120E700239A46802312
:1018500000271B03094A61E7802349461B031942FD
:1018600000D1E2E05946194200D0DEE00B431B03F1
:1018700017001B0BA246014A50E7C046FF070000B5
:1018800001FCFFFF6CB00110FF030000FFFFFFFE33
:10189000FE070000FFFF0F800DFCFFFF01F8FFFFB8
:1018A000F3030000D94500D9CBE000D1C6E03C00ED
:1018B00048460027009B013B00935B46160E1B0227
:1018C0001E431302984633041B0C9946310C0191B8
:1018D000FEF75AFE4A4642430B04210C0500194309
:1018E0008A4207D98919013D8E4203D88A4201D91B
:1018F000851E8919881A0199FEF746FE09048C464F
:101900004A46210464464243090C030021438A42AB
:1019100004D98919013B8E4200D8F1E02D041D4302
:10192000AB464346891A4246280C12041D0C5B46FE
:10193000140C22001B041B0C5A4303946B434443B6
:10194000029568431B19150CEB189C4203D980249F
:101950006402A44660441C0C15041B042D0C2018C2
:101960005D19814277D373D00C1AA24A7D1BAF4216
:10197000BF419446009B7F426344E01B1C008642AB
:1019800000D1DBE00199FEF7FFFD4A4642430B041C
:10199000290C070019438A4207D98919013F8E4251
:1019A00003D88A4201D9871E8919881A0199FEF73E
:1019B000EBFD09044A46894629044D464243090C79
:1019C000030029438A4207D98919013B8E4203D873
:1019D0008A4201D9831E89193F04891A3A00039F5C
:1019E0001A43380013041B0C584381460298150C07
:1019F0006F43434345434846000C8446DB19634428
:101A00009F4203D9802040028446654448461F0C0B
:101A100000041B04000C7D191818A94200D284E0B0
:101A200000D17FE001231A4357E680234A461B0377
:101A300013431B031B0BAA466F4A6FE6BA4200D939
:101A400035E74B46DC0758087B081C43FF0734E7A3
:101A50000024AF4289D247444745A4415B466442D3
:101A6000A4196418013BA6421ED2A0426DD800D131
:101A7000B6E0241A9B4678E703005A46283B9A4072
:101A80000027914688E65846FEF7FEFE203072E6B3
:101A900003005246283B9A4093460022B4E6504643
:101AA000FEF7F2FE20309AE6A642E2D1B845DCD934
:101AB000341A9B4659E71F2B65DC504C0099A4460D
:101AC0005C46614408008C4011008240D940501EA1
:101AD00082410C4314435A46DA401300620709D08E
:101AE0000F222240042A05D02200141D944289416D
:101AF00049425B181A0262D50122002300270DE635
:101B00008A4200D80AE7831E891907E70F2313408A
:101B1000042B00D1E6E5171D9742924153429B44A6
:101B2000FA08E0E5002800D1D7E57118531EB1424C
:101B300027D3A94215D358D01A0073E7002B00DC35
:101B400004E6012300229B44CDE502234744474598
:101B500089415B429C46494289190C19E344241A85
:101B600003E743465F0047459B41B8465B429E19E9
:101B7000023A8919A94200D054E7404500D051E704
:101B8000ABE51A00F6E71F215F4649420C1BE74010
:101B9000202B07D01A49009B8C46634418005B46F3
:101BA00083401A43501E82413A43072700231740BF
:101BB00009D00F21002311401400042995D12200DF
:101BC0005F075B021B0BD20817430022A6E58023A8
:101BD00059461B030B431B0317001B0B064A9DE5CD
:101BE000BD42B2D89B460024BFE68045B9D31A0057
:101BF000C3E7C046FF030000FF0700001E0400000B
:101C00003E040000F0B54F464646D6468446C0B571
:101C10008046194E18030F034D00000B5C008246EE
:101C20003F0B6D0DC90F9146640DDB0F0120B542CE
:101C30000AD0B44203D0A54201D157450CD01CBCF8
:101C400090469946A246F0BD66463E43F7D1AC4267
:101C5000F5D154461443F2D10120C845EFD1994241
:101C600007D0002DEBD163461F433800471EB84113
:101C7000E5E70020E3E7C046FF070000F0B54F4668
:101C80004646D6464D00C0B50E03C90F8A462C49BC
:101C90001F035C008046360B6D0D91463F0B640DB3
:101CA000DB0F8D421ED08C4216D0002D1ED130434A
:101CB0008446002C01D13A4323D06246002A1AD030
:101CC0009A4529D0514602200139084001381CBCF0
:101CD00090469946A246F0BD39001143E5D0022056
:101CE0004042F4E73043FAD1AC420FD0002C0FD180
:101CF0003A43E7D00CE00122013B93431800013046
:101D0000E5E763460020002BE1D0DBE73A43E6D16C
:101D10009A45D7D1A542D5DCA54205DBBE42D1D834
:101D200008D00020BE42D2D2504601230138984349
:101D30000130CCE7C845C5D80020C845F4D3C6E774
:101D4000FF070000F0B54F464646D6464D00C0B5E9
:101D50000E03C90F8A462E491F035C008046360BCE
:101D60006D0D91463F0B640DDB0F8D4218D08C42F8
:101D700011D0002D18D130438446002C1ED13A4397
:101D80001CD163460020002B30D05146022001397F
:101D9000084001382AE039001143EAD0022025E04A
:101DA0003043FBD1AC4226D0002C26D13A4324D17B
:101DB0005146022001390840013817E06246002AE6
:101DC0000FD09A45E1D1A54205DBBE42DDD819D03E
:101DD0000020BE420AD25046012301389843013008
:101DE00004E00122013B9343180001301CBC9046E3
:101DF0009946A246F0BD3A43D0D19A45C5D1A542F5
:101E0000C3DCE0E7C845C0D80020C845E3D3EDE710
:101E1000FF070000F0B55746DE464E464546E0B5A2
:101E2000834606000F03480087B092461D003F0B13
:101E3000400DCC0F002800D16FE0DE4B984238D027
:101E40008023FF001B041F43730F3B430193DA4BB6
:101E50000027994600239B46F60081442B03690026
:101E60001B0B52469846490DED0F002900D185E025
:101E7000D04B994200D173E04346DA0080231B0423
:101E800013435246CC48520F844613435246002017
:101E90006144D20089442100694000918C460121AF
:101EA00049448A460F2F00D990E0C449BF00CF595A
:101EB000BF465B463B43019300D06AE102230827FB
:101EC000002681469B46C9E732005846019B614681
:101ED0000091022800D175E0032800D1FEE101281D
:101EE00000D02CE100230027002600253F032A0D07
:101EF0003F0BB34812053A4302401B051343009AB7
:101F00005B00D1075B080B433000190007B03CBCF5
:101F100090469946A246AB46F0BD5B463B430193D3
:101F200000D12FE1002F00D1A5E13800FEF7ACFC75
:101F300003000B3B1C2B00DD96E11D22D31A5A46F1
:101F40000100DA405E4608398F4013008E403B4363
:101F500001939C4B00271B1A994600239B467DE763
:101F6000414653460B4393498C46E144002B00D035
:101F70001AE102220220174300228CE7134300D10A
:101F80000DE14346002B00D181E14046FEF77CFC89
:101F900002000B3A1C2A00DD72E1010043460839B9
:101FA0008B4098461D239A1A5346D3401A00434645
:101FB000134352468A404946081A82498946814459
:101FC000002068E77B4B002700268EE7140C1204E4
:101FD000120C1100370C3604350C794328008C465E
:101FE0002E0060436044834656432100300C8046F7
:101FF0005846794340440291844506D98846802159
:1020000049028C46E044414602913604010C360CEC
:1020100000048B4681191E0C1B041B0C0391190034
:1020200079438C46280075436544A8465843050CFF
:1020300045447743A94203D9802149028C4667442D
:10204000290C8C4639000004000C2D042D18614425
:10205000AB4405915946049101990F043F0C080CBB
:10206000390051434243904602008C46090C8B468E
:1020700062437C4344445C44A04503D98021490227
:1020800088464244210C884661460904090C8C4666
:1020900039005943434370437E430F0CF618240420
:1020A000BE19644442448C46B34203D980235B0288
:1020B00098464044029B61469846049B370443443B
:1020C0009B46AB45AD416B420D0405992D0C8C46EA
:1020D0007F196744FD18A8465D462D19A542A44105
:1020E00093466442A446C344DC448F42BF419845B2
:1020F0009B4193459241A445A4415B427F421F43CB
:10210000360C52426442BF192243BF186246381847
:102110004302D20D039913436A020A43501E8241BF
:102120006146ED0D2A434E023243D90100D4B3E09B
:102130000126500832400243DE0732435B08224C3E
:102140005444002C62DD510709D00F2010400428B0
:1021500005D0101D9042924152429B180200D901B5
:1021600004D580241948E4000340544418488442AC
:1021700000DD27E75E075B02D2081F0B63051643ED
:102180005B0DB2E6002399460133042700269B46E7
:1021900064E60323019781460C279B465EE60122F5
:1021A00001201743002276E6032303201F43434602
:1021B00071E6C046FF07000001FCFFFFACB0011054
:1021C000FFFF0F800DFCFFFFFF030000FFFFFFFE7E
:1021D000FE0700000023802700933F030026434BA7
:1021E00083E6019B3200A446584670E6AC466EE694
:1021F000802701993F0339422DD03B422BD11F4309
:102200003F033F0B00951600384B6EE601252D1B52
:10221000382D00DD66E61F2D40DC35481C0050449B
:10222000160082408440EE40501E824134431443E5
:10223000EB40620709D00F222240042A05D0220079
:10224000141D9442804140421B181A023ED50123BE
:102250000027002649E68027019B3F031F433F03D9
:102260003F0B0094214B40E603005A46283B9A401E
:10227000002601926DE65846FEF706FB203057E631
:1022800003005246283B9A401300002293E6504632
:10229000FEF7FAFA20307BE6CA4650E71F201E0000
:1022A0004042041BE640202D03D0124C5444A3406E
:1022B0001A43501E8241324307260027164009D098
:1022C0000F200023104014000428B9D122005E071B
:1022D0005B021F0BD2081643002306E680273F034C
:1022E0001F433F033F0B1600004BFEE5FF070000B6
:1022F0001E0400003E040000F8B557464E46454611
:10230000DE460C000903E0B5490A460F5F00314381
:102310001E03DB0F760A9B46530F3343C84E6500FE
:10232000C000E40FD2006D0DA24681467F0D9C4691
:102330009046B74200D1B9E05B46012673409B4608
:10234000EE1BA34500D183E0002E63DD002F00D0FB
:10235000B1E06346134300D123E1731E002B00D08C
:10236000BAE1861A6346B04280410125C91A40424B
:10237000091A0B0200D447E149024B0A984643462A
:10238000002B00D189E14046FEF77EFA0300083BAE
:102390001F2B00DD7CE120223000D21A4146D040C4
:1023A000994002009E400A439D4200DD6AE15D1BA8
:1023B0006B1C1F2B00DD94E1202110003500C91A91
:1023C0008E40DA408840DD40711E8E4111000722A8
:1023D0002843002506433240002A09D00F2333400A
:1023E000042B05D0331DB342B641764289191E0035
:1023F0000B0200D43DE26A1C914B55056D0D9A42CB
:1024000000D119E18F4AF6080A40570752023743B4
:10241000120B9BE0002E00D0C5E06E1C7605760DF9
:10242000012E00DC48E16746861ACB1BB042BF4153
:102430007F42B8461F004346FF1A3B00B8461B02C6
:1024400000D55FE137439AD100220024002579E0CE
:10245000002E00DCFAE0002F00D18DE0784B9D4289
:1024600067D0802367461B041F43BC46382E00DC20
:1024700052E1634613435A1E93411E18864280411F
:10248000404209180B0200D4BEE06D4B01359D425D
:1024900000D1D2E06B4A73080A4001210E401E436E
:1024A0005108D30707221E43324095E71E0016430A
:1024B00000D045E740E7624B9D423AD08023674613
:1024C0001B041F43BC46382E00DDEBE01F2E00DC52
:1024D0003AE133006746203BDF403B00202E05D029
:1024E0004027BF1B6646BE40324390464646721E9A
:1024F00096413343DAE0002B00D114E263461343E4
:1025000000D168E180234E07C008C9081B030643B9
:10251000194208D06046C008184204D16346010041
:10252000D2085E071643F3009946C900720F444D66
:1025300011434B46DE08424B4F073743CA089D42C2
:1025400000D16EE012036D05120B6D0D0021120318
:10255000130B0A0D12051A433B4B2D0513402B4359
:102560005B00E4075B082343380019003CBC90463D
:102570009946A246AB46F8BD6346134311D0731E7D
:10258000002B00D007E1861886428041614440421A
:10259000091801250B0237D502257BE73E0061466D
:1025A00091463500C5E75C46002D00D0E1E00B0008
:1025B0000343F3D0731C00D1ACE1214B9F4200D107
:1025C0003AE1F343382B00DD6FE11F2B00DD8CE196
:1025D00020250E00ED1AAE40B0460600AA46DE40A9
:1025E000454635432E005546D940A8406346451E12
:1025F000A8415B1A9C463043161AB2429241634688
:102600005242991A3D00B4E607223240002A00D017
:10261000E4E60B4BF6084F073743CA089D4200D04B
:1026200090E73B00134300D1A6E180231B031A432C
:102630001203120B024D89E715000022002785E7DF
:10264000FF070000FFFF7FFFFFFF0F80002E00D07D
:10265000C7E06B1C5E05760D012E00DCF0E0C84D76
:10266000AB4200D1B9E085180A0085428941624435
:10267000494251180722CE076D082E4349083240BF
:102680001D00A9E6BF49ED1A114007223240A3E61A
:10269000320028388240002686E63000FEF7F4F843
:1026A000203073E6634613435A1E9341C61AB04264
:1026B00080414042091A5CE60E0067460643174314
:1026C000002D5ED1002E00D0F3E0002F00D11EE1DE
:1026D0005C46614691462CE7A94FBE427BD01E0066
:1026E000F1E610001F3DE840202B03D04021CB1A1B
:1026F0009A401643731E9E41072206433240002132
:10270000002583E7161A6346B2428041591A4042B7
:102710000B1A98465C4632E61F2E00DDABE0202700
:10272000BB1B9A4663465746BB40994613004F462B
:10273000F3401F433B005746BA40571EBA4113436C
:102740006246F240891898E62027BB1B9A466346EA
:102750005746BB40994613004F46F3401F433B008A
:102760005746BA40571EBA4113436246F240891A8F
:102770009CE7834B9F425FD080252D047342294301
:1027800020E7002E0CD1002F00D1D0E05C4661463E
:1027900091467B4DCDE67A4FBE421CD01E0065E6C9
:1027A000002F18D0C0084E0706438020C908000338
:1027B000014208D06346DC08044204D12100DA4615
:1027C000D2085E071643F300994601245346C90018
:1027D000720F11431C406A4DABE61D00002200271A
:1027E000B4E6002D59D10B00034300D1D6E6731C8B
:1027F00000D1B2E0624B9F421ED0F343382B6FDC16
:102800001F2B00DD97E020250E00ED1AAE40B046EC
:102810000600AA46DE40454635432E005546A840F0
:10282000D940451EA8418C440643B61896429241B1
:10283000514261443D0025E63D006146914678E6FF
:102840000B000343002D00D055E6002BF5D0634666
:10285000134300D16DE686188642804161444042B0
:10286000091800220B0200D4D0E6464B013519406E
:10287000B2E5B1465DE633006746203BDF403B00F2
:10288000202E05D04027BF1B6646BE4032439046EF
:102890004646721E96413343EFE5394B9F42CBD0FB
:1028A00080252D0473422943A8E70843411E88412F
:1028B000A2E6002F00D13CE66346861ACF1AB0424A
:1028C0009B415B42FB1A98461B024ED5161A634683
:1028D000B2429241591A5242891A5C4600227BE563
:1028E00001430E00711E8E419FE71D000E00203D2A
:1028F000EE40B046202B04D04025EB1A9940084307
:10290000814648464346411E8841184374E60022EA
:10291000002417E6161A6346B2429241591A5242EF
:10292000891A3D0025E561469146154D01E6802254
:102930000024120379E61D000E00203DEE40B04653
:10294000202B04D04025EB1A9940084381464E467F
:102950004346711E8E411E4367E7861896429B418F
:1029600061445B42C9183D008CE547463743CED0F1
:1029700007224146324049E600273A00E6E5C046D4
:10298000FF070000FFFF7FFF70B50C4E0D031C0317
:1029900049005B002D0B490D240B5B0DB14208D0A3
:1029A000064900208B4203D114432000441EA0415D
:1029B00070BD05430120002DFAD1F1E7FF070000AB
:1029C00030B5144D0A034B00120B5B0DC90F0024E8
:1029D000AB4211DD104CA34210DC8024640322437F
:1029E0000E4CE41A1F2C0CDD0D48C31ADA401300FC
:1029F0005C42002900D11C00200030BD094BCC18DE
:102A0000FAE7094DE040AC4663449A4013000343A3
:102A1000EEE7C046FE0300001D0400003304000082
:102A200013040000FFFFFF7FEDFBFFFF70B50028E0
:102A30002DD0C317C5185D40C40F2800FDF724FF33
:102A4000154B1B1A5B055B0D0A2815DD0B388540FD
:102A500000222D032D0B002110002D030A0D2D0B3C
:102A600012052A430D4D1B052A4013435B00E40762
:102A70005B082343190070BD020029001532914004
:102A80000A000B21081AC5402D032D0BE3E7002493
:102A9000002300250022DEE71E040000FFFF0F8058
:102AA00010B5041E25D0FDF7EFFE144B1B1A5B0575
:102AB0005B0D0A2812DD0B38844000222403240B0E
:102AC0000021100024030A0D240B120522430C4C94
:102AD0001B05224013435B00590810BD0200210072
:102AE000153291400A000B21081AC4402403240B1C
:102AF000E6E7002300240022E2E7C0461E040000AF
:102B0000FFFF0F804100090E4B1C70B5DBB246027F
:102B1000750AC40F012B14DDE0239B006D07360BF3
:102B2000CB1800210A0D280012051C4D32435B050D
:102B30002A405B0813435B00E4075B08234319004A
:102B400070BD002914D1002D1ED02800FDF79CFE79
:102B50000A281CDC0B232A001B1ADA400300153359
:102B60009D400F4B12031B1A5B05160B5B0DD8E73C
:102B7000002D06D0320B802636036D071643094B15
:102B8000CFE7084B0026CCE700230026C9E7030067
:102B90002A000B3B9A400025E3E7C046FFFF0F8069
:102BA00089030000FF070000F0B54C00640D0B0323
:102BB000621C5B0A460F5205C90F1E43C500520D29
:102BC000012A29DD374BE718FE2F1CDC002F3BDDE7
:102BD0008001431E98410722F3006D0F03432B43EE
:102BE0001A40002A04D00F221A40042A00D00433CD
:102BF0008022D2041A4024D00137FAB2FF2F02D02B
:102C00009B01580A01E0FF2200204002D205400A41
:102C1000C90710430843F0BD3543002C04D1002DF3
:102C20000AD100220020F0E7002DECD08020C00364
:102C30003043FF22E9E7002400235B02580AE2B296
:102C4000E3E7DB083C00F8E73B001733F3DB8023C6
:102C50001B0433431E26F61B1F2E14DD0222524294
:102C6000D71B1A00FA401700202E04D00E4A9446B3
:102C70006444A3401D432B005D1EAB4107223B4330
:102C80001A400027ADE7094A2800A2189540934052
:102C90006C1EA541F04007222B4303431A40002736
:102CA0009FE7C04680FCFFFFA2FCFFFF82FCFFFF06
:102CB00010B5002903D1FDF7E7FD203002E0081C24
:102CC000FDF7E2FD10BDC046F0B54E465746DE4664
:102CD0004546E0B50F00002183B006008946002F6D
:102CE00006DA3900002746428F41012149428946D0
:102CF000002B07DA4946C943100089461900002312
:102D000042428B4134003D0092469846BB4269D80E
:102D100066D041465046FFF7CBFF8346390030006E
:102D2000FFF7C6FF5B461B1A9C46203B9B4600D51F
:102D300075E05146584681400B005146604681403F
:102D40000A00BB4261D85ED034003D005946A41A47
:102D50009D41002900DA7AE0002100200126009040
:102D6000019159468E400196614601268E4061468A
:102D70000096002950D0D90756085F080E436346D5
:102D80000EE0AF4201D1A6420CD8A41BBD410121E7
:102D900024196D410022013B64185541002B06D0D7
:102DA000AF42EED9013B24196D41002BF8D10098B8
:102DB00001995B4600196941002B3DDB2E00DE4086
:102DC00063462C00DC405B46002B4BDB34005D4649
:102DD000AC4023006446A6403200801A994103E0CB
:102DE000B24296D9002000214B46002B04D00300AC
:102DF0000C0000215842A14103B03CBC90469946CA
:102E0000A246AB46F0BDB1429ED900210020009001
:102E1000019161460029AED100980199E4E7202391
:102E2000624651469B1AD94040460091614688400F
:102E3000030000990B4380E7624620239B1A2A0077
:102E40009A40260013006246D6401E43B8E761460A
:102E500020260127761A00200021F74000900191DA
:102E6000019781E76746202362463500BC409B1AE4
:102E7000DD4023002B43ADE7024670B50A439207BD
:102E80002AD11E4DEE0104C808C9541B9443344096
:102E900017D0D0B2D9B2401A2106014310D190B256
:102EA00099B2401A210401430AD110021902000A02
:102EB000090A401A2102014302D1100E190E401ACC
:102EC00070BD9A42DFD010BA19BA884201D90120E8
:102ED00070BD0020C04370BD02780B780130013115
:102EE000002A09D09A4207D102780B7801300131CB
:102EF000002A01D09A42EFD0D01A70BD0101010121
:102F000010B505F01BFB094C2368C01AF423FF33EE
:102F1000984208D905F012FB054B20601A78002A68
:102F200002D101321A7010BD0022FBE7282B0020CD
:042F3000142E00203B
:102F340010B505F001FB074B1B68C01AF92805D929
:102F44000122054B19788A4201D11A7010BD002262
:0C2F5400FBE7C046642D0020202E00206A
:102F600010B505F0EBFA0A4C2368C01AF9280ED9FF
:102F700005F0E4FA074A08491368206001330B4062
:102F800004D50421013B49420B430133136010BDBA
:0C2F9000002B0020FC2A00200300008021
:102F9C0010B50D490D4801F060FA0D490D4801F0CE
:102FAC005CFA0D490D4801F058FA0D4C0D49200002
:102FBC0001F053FA20000C4901F051FA0B490C486E
:102FCC0005F058F810BDC046C13700109C290020F0
:102FDC00DD37001028280020F937001020290020A8
:102FEC00A4280020153800103138001026B101102B
:042FFC00041D002090
:1030000010B5064801F0BFFA054801F0BCFA0548C2
:1030100001F0B9FA044801F0B6FA10BD9C2900206D
:0C3020002828002020290020A4280020DF
:10302C00054B10B51B78002B05D0FA213222C900B4
:0C303C00152003F011FD10BD4003002022
:103048000A4B10B51B78002B0ED0FA21322249000A
:10305800152003F003FD642005F07CFAFA213222E2
:103068004900152003F0FAFC10BDC04640030020BB
:103078000E4B10B51B78002B17D0FA21642249009B
:10308800152003F0EBFC642005F064FAFA216422B1
:103098008900152003F0E2FC642005F05BFAFA21B0
:1030A8006422C900152003F0D9FC10BD400300209C
:1030B800F0B50525012785B0144C009701233C2263
:1030C8000221200001F006FC114E002808D1114908
:1030D8003000013D04F0C6FF002DEDD105B0F0BD74
:1030E800200001F0E6FB402300220193DB181100C9
:1030F80000932000084B029702F0C4F8200001F06A
:1031080069FE0649300004F0B7FFE7E7442A0020CB
:10311800041D002031B10110C5B601104BB10110DA
:10312800F7B50B4C1F0008AB1B78060020001500F4
:10313800019302F0FAFA6B469B88ADB2E582A5824C
:10314800278231006382200004F07BFFF7BDC04670
:04315800442A0020E5
:10315C00F7B506254D430E4C1E0008AB1B78070037
:10316C00110020005543019302F0DDFA0C23E15EBF
:10317C006B46491BCD0F9B886D18B6B26D10E6825D
:10318C00A682258239006382200004F058FFF7BD27
:04319C00442A0020A1
:1031A00010B5024801F01AFE10BDC046442A0020A6
:1031B00010B5024801F081FB10BDC046442A002032
:1031C0001FB50123029307330193053B0093044B82
:1031D00002B25B687B21034802F058F805B000BDDD
:0831E0004C020020442A0020EB
:1031E80010B50F4C01230F4A0021200002F0AAFE5F
:1031F80001230D4A0421200002F0A4FE01230B4AFA
:103208000821200002F09EFE0423094A0C21200018
:1032180002F098FE0749084804F02EFF10BDC0468A
:10322800C4020020132E0020400300204103002088
:0C323800842D002073B20110041D002042
:1032440010B50F4C01230F4A0021200002F0EEFDBF
:1032540001230D4A0421200002F0E8FD01230B4A5A
:103264000821200002F0E2FD0423094A0C21200079
:1032740002F0DCFD0749084804F000FF10BDC04619
:10328400C4020020132E002040030020410300202C
:0C329400842D002095B10110041D0020C5
:1032A00070B505250D4A50210D4803F00AF80D4C64
:1032B000002807D10C492000013D04F0E1FE002D5B
:1032C000F0D170BD0949200004F0DAFEFFF7BAFF23
:1032D0000749200004F0D4FEF3E7C046D4160020CE
:1032E000C4020020041D0020ECB0011005B1011043
:0432F00016B1011002
:1032F40010B50021122005F0D7F90122014B1A70F4
:0833040010BDC046132E00208D
:10330C0010B50121122005F0CBF90022014B1A70E7
:08331C0010BDC046132E002075
:1033240073B5354C3549200004F0A8FE344920001B
:1033340004F089FE334D0A222968200004F0F9FEC6
:103344003149200004F07FFE0A226968200004F05D
:10335400ECFE2E4E2000310004F075FE297F200083
:1033640004F096FE2A49200004F06DFE0A22A968A2
:10337400200004F0DAFE3100200004F064FE697FCE
:10338400200004F085FE2349200004F05CFE6969F6
:103394000A22200004F0CDFE1F49200004F053FE51
:1033A4000A22A969200004F0C4FE1C49200004F08C
:1033B4004AFEE868FFF7A4FB022602000B00009611
:1033C400200004F08FFF1649200004F03CFE286919
:1033D400FFF796FB009602000B00200004F07CFF30
:1033E400A97F200004F054FE200004F035FE2000E4
:1033F40004F032FE73BDC046041D0020CCB10110A0
:1034040007B20110082B00200EB2011023B20110E4
:1034140019B2011025B201103BB2011050B20110D3
:0434240068B2011079
:1034280030B587B0050001AC1122034920000FF028
:0C3438005BFB605D07B030BDE4B3011029
:1034440070B5012300250C1FA34204DAC25C0133CA
:103454005540DBB2F8E74618331F1B7800242A2BAB
:1034640010D12809FFF7DEFFF31E1B78834209D130
:103474000F202840FFF7D6FF023E3478241A60421A
:083484004441E4B2200070BDD8
:10348C0070B5104C0A2221680F4804F04EFE2568D6
:10349C000E492800FDF776F818210230FDF758F98F
:1034AC000B4C280021700949FDF752F908006421E2
:1034BC00FDF768F8642160702800FDF749F9A170E8
:1034CC0070BDC046082B0020041D002010270000F2
:0434DC001C2E002082
:1034E00010B5024802F0E9FB10BDC046402D002097
:1034F00010B57C2831D006DC7A281FD07B2826D056
:10350000FFF7A2FD22E07D2843D04623FF339842F7
:10351000F6D1FFF769FE0122224B1A700022224BDE
:103520001A70224B1B78934230D0FFF7E3FE2049FC
:10353000204804F0A5FDFFF79FFD07E0FFF776FDAB
:10354000194A1378033303210B40137010BDFFF7A2
:103550006DFD154A13780133F5E7134B18780328EE
:1035600008D8FCF781FF020A0C0E104A01231178DB
:103570004B401370FFF75AFDE8E70F4AF6E70F4A92
:10358000F4E70F4A136801331360F3E7FFF7BEFE59
:10359000CDE7054B1B78032BB2D1094A1368013BD9
:1035A000F2E7C046182E0020192E0020132E00200E
:1035B000DAB30110041D0020400300204103002065
:0435C000842D002036
:1035C40070B50500074B29001C78601CFDF7C4F892
:1035D400054B6019197001382900FDF7BDF8034B3C
:1035E400197070BD192E00201A2E00201B2E0020E9
:1035F40010B57B280FD07C2813D07A281ED1114B0C
:103604001A78012A1AD100221A70FFF70DFD03203F
:10361400FFF7D6FF10BD0B4B1A78002A0ED10132EA
:10362400F2E70122084B1A700022064B1A70FFF7CA
:10363400FBFC0649064804F021FDE8E7FFF702FD1C
:10364400E5E7C046192E0020182E0020DAB3011039
:04365400041D002031
:1036580070B50400264D2749280004F0F2FC0A2220
:103668002100280004F063FD20007A3803283CD8A4
:10367800214CFCF7F5FE020E1334FFF7D3FC20783B
:1036880002300321FDF766F821700320FFF796FF4B
:1036980070BDFFF7C7FC20780130F2E72378012BD3
:1036A8000FD0002B04D0022B12D0FFF7BBFCECE7A5
:1036B8000221124A237011701149280004F0DCFC21
:1036C800F3E703220D4B0F491A7000232370F4E728
:1036D80004220A4B0C491A7000232370EDE70023DB
:1036E800064A237013700949E7E7FFF7A9FCCCE7FE
:1036F800041D0020AAB20110192E0020182E002047
:10370800B2B20110BFB20110CAB20110D8B2011092
:1037180070B5154D04001549280004F0ADFC7A2C4D
:1037280005DB7B2C06DD4623FF339C420ED0FFF7DA
:1037380087FC07E0FFF776FC01210D4A1378013377
:103748000B4013700220FFF739FF70BD0122094BAF
:1037580009491A700022064B28001A7004F08CFCE4
:10376800FFF760FCEEE7C046041D0020B2B201106E
:0C377800192E0020182E0020DAB30110DA
:1037840010B50D4A03001078042807D8FCF76AFE28
:1037940003070B060F001800FFF72AFF10BD1800DF
:1037A400FFF758FFFAE71800FFF7B4FFF6E7180031
:0C37B400FFF79CFEF2E7C046182E002034
:1037C00010B50449044804F05BFC7A20FFF7DAFFE7
:0C37D00010BDC046B5B10110041D002062
:1037DC0010B50449044804F04DFC7B20FFF7CCFFE6
:0C37EC0010BDC04691B20110041D002069
:1037F80010B50449044804F03FFC7C20FFF7BEFFE5
:0C38080010BDC0467BB10110041D002063
:1038140010B50449044804F031FC7D20FFF7B0FFE3
:0C38240010BDC04662B10110041D002060
:1038300010B50449044804F023FC4620FF30FFF78C
:0C384000A1FF10BDC0B30110041D00204A
:10384C0007B5054B421E1878362300210093343BF4
:0C385C0004F0D2FAC0B20EBD192E0020FC
:10386800F0B585B0FFF7A0FC402301242A4F2B4E6A
:103878000193393B029400933B6830000022792180
:1038880001F000FD14257623029401950093BB688E
:1038980030001622022101F0F5FC0F234A2202947F
:1038A80000920193FB683000453A002101F0EAFCE0
:1038B8000F234A22029400920193FB6830001E3ABB
:1038C800002101F0DFFC164B164E187809236843D7
:1038D8000093301822002100053BFFF721FC124B12
:1038E8002200187819236843009330180D3B0221F1
:1038F800FFF716FC0D4B220018783023684321008F
:10390800301800932C3BFFF70BFC0320FFF79AFFBE
:10391800FFF752FC05B0F0BD4C020020442A0020FD
:103928001B2E00205C020020192E00201A2E0020D9
:1039380010B500211A2004F07BFE0C2004F072FE62
:0239480010BDB0
:10394C0030B50024E5B01A2004F02CFE6A46A30022
:10395C0001349850642CF6D1002108006A468B0083
:10396C00D3580131C0186429F8D1FCF70BFEFFF7CE
:10397C0057F8134A134BFEF747FAFFF70FF9FFF707
:10398C00BBF80022104BFEF7B1FC104A104BFDF7B0
:10399C0031FE104B040018680D00FFF741F80B00C6
:1039AC00020029002000FDF709FBFFF703F80A4B82
:1039BC001B78002B01D11230FF3065B030BDC046F2
:1039CC006ABC74931804493F0000E03F7B14AE4777
:0C39DC00E17A843F842D0020410300208C
:1039E800F0B50324012687B0FFF7DEFB4B4D0094AA
:1039F8000C3428000C2332003100E4B2FFF790FBAE
:103A08001435332CF3D1464B01261A780C235A432C
:103A1800053B0193434D444C033B0296009303320C
:103A28006B690321200001F02DFC404B0A22197814
:103A38001723029601920093002956D0EB683200B2
:103A48006821200001F01EFC394B1A7801230293EB
:103A5800002A4CD0093301930D330093EB680E22F2
:103A68006821200001F00EFC324B1A7801230293E2
:103A7800002A42D0093301930D3300932B682000AC
:103A88001B22682101F0FEFB01260727042302966A
:103A98000197009320006B692A227C2101F0F2FB38
:103AA80004230296019700932B692A2263212000A0
:103AB80001F0E8FBFFF746FF1F490200040004A8D5
:103AC8000FF070FB1B4B1B78002B1ED02A23092CF0
:103AD80002DC2200093216D300936C230122110064
:103AE80004A8FFF71DFB07B0F0BDAB68A7E70A23E2
:103AF80001930D330093AB68B1E70A2301930D33AB
:103B080000936B68BBE7093403DA2A2300933F3339
:103B1800E4E70093320070233100E1E7F00200206F
:103B2800192E0020D8020020442A0020132E00203D
:0C3B38004003002041030020D7B301101F
:103B440030B51D4C85B052230D220821200002F00F
:103B540021F91A4D1A492A0020000AF03DFD194B9B
:103B6400194C0293194B4022019301235B420093A9
:103B74008021174B200000F081FD2A001549200008
:103B84000AF02AFD002301221621134800F032FC1A
:103B9400002301221721114800F02CFC00230122EC
:103BA40018210F4800F026FC0023012219210D489A
:103BB40000F020FC05B030BD402D0020480200205C
:103BC4009D5C0010A0860100442A0020801A060093
:103BD400D4160020E54600109C2900202828002047
:083BE40020290020A428002084
:103BEC0010B50021132004F021FD0121122004F056
:103BFC001DFD0121122004F053FD9621024889017C
:0C3C0C0002F06AFC10BDC046C81B00207E
:103C180007B5FFF74DFAFA20800004F09BFCFFF788
:103C2800C3FA10230222009306210F3B1048FFF726
:103C380091FA2423022204210E480093233BFFF724
:103C480089FAFFF7A9FAFFF747FCFFF7A3F9FFF78F
:103C5800C9FFFFF74BFBFFF76BFEFFF71DFBFA20D1
:103C6800400004F077FCFFF79FFAFFF795FA07BDCD
:083C780056B101105DB101100D
:103C8000E12110B50B4C4902200002F02BFCFA2078
:103C9000C00004F063FC0849200004F0F1F9074972
:103CA000074801F022FE0749200004F0E9F9FFF778
:103CB000B3FF10BD041D00204CBD011040420F0099
:083CC000D416002058BD0110CC
:103CC8000023F0B5ADB009930A930B930C930D93B1
:103CD80021226B462226232700249B186E446F441A
:103CE800584910A80E940F941C7034703C7004F05E
:103CF80080FB554D280002F03FFDA0426BD00A2200
:103D0800290013A804F00EFB13A910A804F097FBD0
:103D180013A804F01FFB642213A910A8230004F0C1
:103D2800BCFB4F200322494968440FF005FBA04221
:103D380051D1129913A8FFF781FB454C002800D1F7
:103D48007CE04449200004F097F94349200004F03E
:103D580093F9200013A904F08FF9129B0FAD0EAC54
:103D6800232B3DD80CAB009322002B003B4916A80F
:103D78000FF038FA0998FDF703F90E9D384C0F9E9D
:103D88000C9F2060012D51D136490A98FCF7C6FFD7
:103D9800FDF7F6F821226B469B181B7860602377A5
:103DA80030490B98FCF7BAFFFDF7EAF822236B4479
:103DB8001B78A06063770D9B6561236123236B44A7
:103DC8001B78A661E760A377FFF7A8FAFFF75AFB0D
:103DD8001F4804F03FF910A804F0BCFA2DB0F0BD5C
:103DE8002D2B0ED853236B4409AA1F4918000FF036
:103DF800F9F961200CAB009322002B0017496844A5
:103E0800B6E70DAB06930CAB05930BAB01932123DF
:103E180053206B44009307970495039402960AABCA
:103E280009AA124968440FF0DDF9A3E710490848C8
:103E38006561A661E76004F01FF9C7E70D49200036
:103E4800F9E7C0460AB40110C81B0020F5B30110F9
:103E5800041D0020F9B30110FEB301100BB40110CA
:103E6800082B00200000C84211B4011014B401103E
:083E780032B4011044B4011042
:103E8000F0B58DB0FFF794F91023012400220193BF
:103E90006E4E6F4D093B0294009333691100280068
:103EA00001F0F4F96B4B1B78002B00D198E0FFF781
:103EB0004DFD6949020006A80FF078F9022301942C
:103EC000009304221821280001F02EF90122042376
:103ED000012400931100053306A8FFF725F95F4B75
:103EE0001A780294002A00D189E00B230727019356
:103EF0000097280033683522002101F0C7F90F230D
:103F00000193033302940093B368280000226C21CC
:103F100001F0BCF9524D5349AA6904A80FF046F9C3
:103F20000423220000932100593304A8FFF7FCF872
:103F30002B68002B5CD04C4909A84B780A7889780B
:103F400000914A490FF032F9192302220093082107
:103F5000230009A8FFF702F96B69002B15D1444B28
:103F60001B78002B11D005220124019200920294AB
:103F7000F3687B21364801F089F93723220000934A
:103F800021002D3B3B48FFF7CFF86B69013B012B2C
:103F90000FD82869FCF7F8FF3749020009A80FF08D
:103FA00005F937230122009311002D3B09A8FFF7E3
:103FB000BBF8012238231100009330482833FFF763
:103FC000B3F80123029306330193033B00932C4B78
:103FD00039225B697C211E4801F058F90DB0F0BD13
:103FE000FFF7B4FC2749020006A80FF0DFF86DE7E1
:103FF000192302220093390023002348AAE70F2344
:1040000001930333009373686C21280001F03EF99B
:10401000174B1B78002BCCD01723220000930B21C9
:1040200023001A48FFF79AF82023220000930B215F
:1040300023001748FFF792F82923220000930C2150
:1040400023001448FFF78AF8B3E7C046B002002007
:10405000442A002041030020E4B20110132E002066
:10406000082B0020EDB201101C2E0020F1B201102F
:10407000142E002008B301100CB3011035B3011049
:10408000D8020020E9B2011000B3011010B30110F2
:084090001CB3011028B301105C
:10409800F0B599B0FFF788F8A14BA24C1B78002B1C
:1040A80000D1B1E001220026110033009E4800969D
:1040B800FFF736F8FE21E5688905281CFCF7B8FBF0
:1040C8000700B04262D001224223110097480096AF
:1040D800FFF726F8A269964908A80FF063F80122AD
:1040E8000C231100009308A80023FFF719F81923DF
:1040F80001220093110000238E48FFF711F865692B
:10410800002D00D085E08C4B1B78002B17D00122A6
:1041180022238A4C1100009320002B00FFF700F89F
:1041280001222D231100009320002B00FEF7F8FF39
:1041380001223923110020000093FEF7F1FF3923F3
:10414800012201260093110000237D48FEF7E8FFB5
:10415800734B7C4C1B787C4D0296002B00D0C9E039
:104168001D33019300932B6813225F21200001F077
:1041780089F80523132271210193063302960093CF
:104188002B69200001F07EF819B0F0BD8021281CB1
:10419800C905FCF74DFB061E05D0012200974223F6
:1041A80011006A4894E76A49281CFCF741FB071E7E
:1041B80005D00122009642231100664888E7664927
:1041C800281CFCF735FB061E05D001220097422368
:1041D800110062487CE76249281CFCF729FB071E8E
:1041E80005D001220096422311005E4870E75C4921
:1041F800281CFCF73BFB002800D16BE70122009745
:1042080042231100584863E70122009311005748E0
:104218005EE7013D012D00D991E7676854493800F0
:10422800FCF798FAA5680E0028005149FCF792FAA5
:10423800300005916421FCF7A7F94D490690380034
:10424800FCF7A2F90790237F300064210193FCF763
:1042580081FA484F079A069B00910EA839000EF084
:10426800A1FF64210598FCF78FF941490600280051
:10427800FCF78AF9637F0500642105980193FCF730
:1042880069FA33002A00009113A839000EF08AFF5A
:1042980001222223110000930EA80023FEF740FFFD
:1042A80001222D23012502261100009313A80023C3
:1042B800FEF736FF234F330022220D2138000195E7
:1042C800009600F02DFF33002E220D2138000195B5
:1042D800009600F025FF2069FEF710FC02000B0095
:1042E8000BA825490EF05EFF39232A000093290008
:1042F8000BA822E705230193033300936B6913226C
:104308007121200000F0BEFF1D221C4B5F211B689D
:10431800019200929B000296EB580A3A31E7C04698
:10432800132E0020082B00203AB3011045B30110CA
:1043380080B301108FB30110142E002008B30110B0
:10434800B6B30110442A0020980200204FB3011090
:104358000000A04054B30110000020415BB30110DD
:104368000000A04166B301106BB3011073B30110D4
:10437800102700009CB30110AFB30110FC2A0020E5
:1043880010B5064B1B78002B02D0012B03D010BDB3
:10439800FFF772FDFBE7FFF77BFEF8E7192E002019
:1043A80010B5FEF7A9FDFEF7C1FDFEF7D5FDFEF736
:1043B80023FE0D4B1B78002B01D0FFF781FC0B4B24
:1043C8001B78012B09D0002B04D0042B08D0FEF752
:1043D800E3FE10BDFFF7D4FFF9E7FFF741FAF6E770
:1043E800FFF7FEFAF3E7C046132E0020182E002030
:1043F80070B504000800322161605F31FF31A160AF
:104408009131FF31E1600121002549422166616651
:10441800023125616561A561E56125626562A56274
:10442800E56225636563A563E56325646564A56442
:10443800E56425656565A565E565A566E5662567A1
:104448006567A1672060AA4200D12161C0B202213C
:0E445800002B00D1190004F0EBF8200070BD1D
:0444660041617047F9
:04446A0081637047B3
:10446E0070B504000D0004F062F8636EE066AB42B6
:10447E0007D1A26E801A6268904200D32366206E26
:08448E0070BDA0666566FAE747
:10449600C36E026F10B50400C06D9A1A072800D9C2
:1044A6006CE0FBF7DEFF040C20256B6B54620029E1
:1044B60004D0012223670023E265636710BD00294B
:1044C60002D10222E2652CE0E3689342F6D2A36BA6
:1044D600002B00D09847E36B002B01D0206C984747
:1044E6000623E365EAE7636F013363670323F8E7AF
:1044F600002901D00122E5E7A168636F914202D944
:10450600A26F9A42DAD1012B0DD16369002B00D03C
:104516009847A369002B01D0E06998470023E3651B
:1045260063672367CAE7022B08D1236A002B00D0F2
:104536009847636A002BF1D0A06AEEE7E36A002B86
:1045460000D09847236B002BE8D0606BE5E7002985
:1045560001D10722B6E7236D002B00D09847636D83
:10456600002BABD0A06D9847A8E7636C002B00D05A
:104576009847A36C002BD1D0E06CCEE70023B0E7C0
:1045860010B50400006800280EDBC0B204F0B1F8D4
:1045960001002000FFF768FF2369181A41424141D4
:0A45A6002000C9B2FFF774FF10BD3A
:0445B0000020704730
:0245B40070474E
:1045B600F0B500291BDB0C25445F8C4217DD002A71
:1045C60015DB0E25445F944211DD847E022C0FD04C
:1045D600032C16D0012C04D1D2430489A4180A0056
:1045E60021B2012B13D0002B22D0022B32D0F0BDEA
:1045F600CC4301890919D443428909B2121912B26E
:10460600EFE7C94344896418110022B2E9E7072598
:10461600D4172C40A4182A4093400827C65FE410FC
:1046260074436118C46A61180A7813430B70DEE795
:104636000724D31723409B180826855FDB106B439E
:104646005918C36A22405918012393401A000B785F
:104656009343EBE70724D31723400826855F9B186F
:10466600DB106B435918C36A0120224090400200B8
:0A46760059180B785A400A70B9E792
:1046800070B5002504001E0012B204AB09B25D57DC
:1046900000F0E2FD104B08332360002363629E426A
:1046A00000D10E4E2100FF223331A662E3620A7070
:1046B0004A708A70CA70220037321570059A20003D
:1046C000A263069AE263064A6264220044321371CE
:1046D0000123537170BDC0460CC20110D4160020D6
:0446E00000093D0090
:1046E400054B10B5083304000360C06A002801D0EC
:0C46F4000DF0CCFE200010BD0CC2011027
:10470000836AF7B504000E000200002B14D030328B
:1047100011781A681800D26A9047A06A00210368CD
:104720001B689847A06A310003681B689847A06A15
:1047300003685B6B9847F7BD35321078190003F0BA
:10474000B5FF606A002804D0036831009B68984771
:10475000F1E70827802523002900333318783140FA
:1047600003F0A4FF2300343301931878012103F0F0
:104770009DFF019B00211878013F03F097FF6D0812
:06478000002FE8D1D7E78D
:1047860070B50400806A0D00002812D00368A16B82
:104796009B6A984729004D1EA9412000A631FFF7C4
:1047A600ACFFA06A002813D00368E16B9B6A9847A8
:1047B60070BD606A002804D00368616CDB69A26C76
:1047C6009847230036331878002103F06CFFE1E7A1
:1047D600230036331878012103F065FF606A00284C
:0A47E600E6D003681B6A9847E2E77B
:1047F000F0B5836A85B08A1805000C000392002B7F
:104800002DD007001A68303718003978D26A9047DF
:10481000A86A0021036801261B689847A86A039AC2
:104820000368A24217D03E2E0CD95B6B9847A86A4A
:10483000397803680126DB6A9847A86A0021036873
:104840001B689847A86A2178036801361B68984757
:10485000B6B20134E2E75B6B984705B0F0BD0200E9
:1048600035321078190003F021FF039B9C42F4D0ED
:104870002378686A0193002805D0036801999B6832
:1048800098470134F1E7082680272B00019933333C
:104890003940187803F00AFF2B003433029318785C
:1048A000012103F003FF029B00211878013E03F071
:0A48B000FDFE7F08002EE8D1E3E7CB
:1048BA00072110B50A22835E0733DA170A40D21895
:1048CA000821435ED2105A43C06A00210EF09DF9B6
:0248DA0010BD0F
:1048DC00F0B587B004930CAB1F78C36A0400059144
:1048EC001600002B1BD02000FFF7E1FF0A23E25E2D
:1048FC000823E15E202A25DC203AD30F9A180B00FE
:10490C00733BD90FC918012302931F33521049105E
:10491C0001935333009312B209B2934B24E00A2251
:10492C00835E07220733D8171040C0180822A35EF5
:10493C00C01058430DF09CFDE062031ED3D118004B
:10494C0007B0F0BD403AD30F9A180B00523BD90F69
:10495C00C918012302933F330193123352104910AB
:10496C000093824B12B209B2200000F089FC6B4616
:10497C0025001B7D31352B70A06A002800D197E0F3
:10498C00002E00D092E00A23E65E203E731E9E416C
:10499C003C36230030331E70002F00D1DEE003685C
:1049AC00DB699847049B002B1BD026000020373670
:1049BC003056002815DBC0B2012103F037FE01216F
:1049CC00307803F06DFE012003F0C2FD0021307839
:1049DC0003F066FE0A2003F0BBFD3078012103F0E2
:1049EC005FFEA06A002800D18DE00368A16B9B6A72
:1049FC00984704225E492000FFF7F4FE61892000ED
:104A0C000139C9B2FFF776FE5A4904222000FFF79C
:104A1C00E9FE0023EB561421012B00D104392000B0
:104A2C00FFF768FE2600042253492000FFF7DAFE48
:104A3C008F2340363370A368504A022793420AD022
:104A4C004F4A93426ED10022AA56CF23012A00D19D
:104A5C00303B12273370DA212000FFF74BFE390070
:104A6C002000FFF747FE81212000FFF743FE31783D
:104A7C002000FFF73FFED9212000FFF73BFE00236B
:104A8C00EB56F121012B00D1CF392000FFF732FE7C
:104A9C00200006223B49FFF7A5FEA06A00284ED055
:104AAC000368E16B9B6A9847012348E776B270E78D
:104ABC0023002600353318783636012103F0B6FD75
:104ACC003078012103F0B2FD3078012103F0E8FDCC
:104ADC00666A002E06D0002F00D163E733683000E1
:104AEC00DB6A5EE723002700333318783437012163
:104AFC0003F09CFD3878012103F098FD38783100E3
:104B0C0003F0CEFD4EE7606A002804D00368616CA8
:104B1C00DB69A26C9847230036331878002103F028
:104B2C00BFFD66E7184A0227934294D10022AA5689
:104B3C00AF23012A00D19F3B337002278BE7230060
:104B4C0036331878012103F0ABFD606A012300288D
:104B5C0000D1F4E603681B6A9847A5E7049B002B79
:104B6C0000D022E741E7C0462BC001106BBD0110FD
:104B7C0074C2011078C201107CC2011080002000A8
:0C4B8C008000400080C20110600010009A
:104B9800F0B5140005AA1688002C41DB0A25425FEF
:104BA800A2423DDD002902DA5B1800211BB208226F
:104BB800855E5A18AA4201DD6B1A1BB2002B2FDD45
:104BC8000727E2173A401219D2105543C26A01204A
:104BD8003C40A04069185218C0B2012E0CD0002EDB
:104BE80013D0022E1CD1013B1BB2591C18D01178CE
:104BF800414011700132F6E7013B1BB2591C0FD03E
:104C08001178014311700132F6E7C043C0B2013B8D
:104C18001BB2591C04D01178014011700132F6E71B
:024C2800F0BDDD
:104C2C00F0B505AC2588002976DB0824065FB14277
:104C3C0072DA002A02DA9B1800221BB20A27C45F20
:104C4C00D718A74201DDA31A1BB2002B64DDD2B228
:104C5C00DCB2D30873435918C36A591807231A4096
:104C6C001FD001339A1A314BD2B29B5C944254D26E
:104C7C00FF26171B3E413340012D06D0002D08D0D6
:104C8C00022D49D10E78734001E00E7833430B703E
:104C9C0002E00E789E430E7094423DD30826835F4B
:104CAC00C918A31ADBB2072B22D9022D10D11A0076
:104CBC000C78083AE4430C700825445FD2B2091909
:104CCC00072AF5D80722134026D0194AD35C19E0DD
:104CDC002C00621E94411A006442E4B20C70082746
:104CEC00C65F083AD2B28919072AF7D807221340AF
:104CFC00002B11D00E4AD35C012D06D0002D08D00C
:104D0C00022D09D10A78534001E00A7813430B7045
:104D1C0002E00A789A430A70F0BD012DB5D0002D3F
:104D2C00B7D0022DAED08919BBE7C04664C20110C2
:044D3C006CC2011034
:104D400037B5140006AA1588827E022A0DD0032AE0
:104D500018D0012A11D1E2430489A41824B20A0010
:104D600000952100FFF762FF0BE0E2434489C91878
:104D7000A418028924B2511A09B200952200FFF743
:0E4D80000BFF37BD4289C918511A09B2E7E787
:104D8E0037B5140006AA1588827E022A0DD0032A92
:104D9E0018D0012A11D10289E418141B24B20A007A
:104DAE0000952100FFF7F1FE0BE0CA430189E418DC
:104DBE008918428909B2141B24B200952200FFF70C
:0E4DCE002EFF37BDCA434189891809B2E7E7B5
:104DDC00F0B50400806A85B000284DD00368A16B43
:104DEC009B6A9847052251492000FFF7FBFC21895B
:104DFC0020000139C9B2FFF77DFC07210A23E25ECE
:104E0C00A06A0732D3170B409B182289DB1053433F
:104E1C009BB20193E66A002848D02700036830371C
:104E2C003978DB6A9847A06A4021036801251B6822
:104E3C009847019BA06A013B9BB20193019A0368BE
:104E4C0011003B4A914226D03E2D0CD95B6B984702
:104E5C00A06A397803680125DB6A9847A06A40216B
:104E6C0003681B689847A06A3178036801351B6892
:104E7C009847ADB20136DCE7606A002804D00368BD
:104E8C00616CDB69A26C98472300363318780021DB
:104E9C0003F006FCA6E75B6B9847A06A002838D0A5
:104EAC000368E16B9B6A984705B0F0BD230035336E
:104EBC001878012103F0F4FB019B013B9BB2019399
:104ECC001A001B4B9A42E8D03378606A0293002890
:104EDC0005D0036802999B6898470136ECE70825D2
:104EEC0080272300029933333940187803F0D8FB1C
:104EFC002300343303931878012103F0D1FB039B77
:104F0C0000211878013D03F0CBFB7F08002DE8D180
:104F1C00E3E7230036331878012103F0C1FB606A04
:104F2C000028C1D003681B6A9847BDE786C20110F0
:044F3C00FFFF000073
:104F4000F0B51D0089B00EAB00241C5F0FAB1B88B1
:104F500016000693A31ADA179B18534002936B1A94
:104F6000DA179B1853400393039A029B01909342D4
:104F700005DC23002C001D0033000E001900A642A2
:104F800005DC2B000D001900230034001E00331B2C
:104F90009BB204934B1BDA179B18534007936B4645
:104FA00010229A5ED30F9B185B10009301238D4251
:104FB00021DA0593B44224DC019B039A1B689B69A8
:104FC0001F00029B934218DD22002900069B0198D6
:104FD000B847009B079A9B1A9BB21AB20092002A0C
:104FE00006DA059AAD18049A2DB2D3181BB20093B5
:104FF000013424B2DEE75B42DBE7069B2A00210096
:06500000E5E709B0F0BD78
:025006007047F1
:0A50080010B504682469A04710BD2C
:1050120037B506AC258804680095A46BA04737BD58
:1050220037B506AC258804680095E46BA04737BD08
:1050320073B506AC0025655F07AC26880468019647
:085042000095246CA04773BD2A
:10504A00F0B5160004000D0085B003930AAB1F8863
:10505A0003685B699847039B2268013B9B191BB253
:10506A0000930197976A2B00320029002000B84765
:0C507A0023682000DB6A984705B0F0BDF9
:10508600F0B505001C000E00170085B00AAB1B88A2
:10509600013C03930368A4195B69984703992A683E
:1050A6000191009723B23100946A28003A00A04784
:0C50B6002B682800DB6A984705B0F0BDAD
:1050C200F0B50E0087B003930CAB029200229B5EF8
:1050D200050004930DAB1B883400059303685B69DC
:1050E2009847039A2B68B21894420ADA059A21006B
:1050F20000921F6A029A049B28000134B84724B226
:0C510200EFE7DB6A2800984707B0F0BD1B
:10510E0013B501910E24015F0C22835E026800919B
:0A511E00146C00221100A04713BD1D
:10512800F0B5040015000E0087B004930CAB002204
:105138009B5E05930DAB1B88039303685B699847D7
:10514800039A236800925F6A2A00049B31002000BA
:10515800B847059B03995A1E2368009152195F6A44
:105168003100049B200012B2B847039A23680092CA
:105178001F6A2A00059B31002000B8470499039A4A
:10518800236801390092891909B21F6A2A00059B10
:105198002000B84723682000DB6A984707B0F0BDB5
:0251A80070474E
:1051AA00F0B585B01E000AAB0027DF5F0BAB1B888A
:1051BA0014000500029103930268B14210D1BC4267
:1051CA0002DC3B0027001C00039901340091E31B19
:1051DA00966B1BB23A0002992800B04705B0F0BDA1
:1051EA00BC4211D1029BB34202DC3300029E0293FD
:1051FA00029B0399013300919B1BD76B1BB22200C0
:10520A0031002800B847E9E753699847039A2B68A1
:10521A00019200979F6A2800330022000299B8473A
:0A522A002B682800DB6A9847D8E7DC
:105234000323194010B50822835E81760A24025F95
:10524400012904D0032902D08381C28110BD828147
:04525400C381FBE730
:105258004281C2810122524242610222002310B5DA
:10526800FF32074C0283013A0834FF3A4360046076
:105278000181818103618376C2760377036210BD61
:045288008CC70110BE
:10528C00F0B58DB0089312AB039200229B5E079190
:10529C00049313AB00229B5E0400099314AB1B8890
:1052AC000A9303685B6998470722049B039FD91DE7
:1052BC00CB1713405B18DB10059300231D000193E3
:1052CC000B92039ABBB206939B1A099A1BB29A4291
:1052DC002BDD0023049A93421EDA9AB202920B9AA7
:1052EC006D0099B2EDB2114204D1089A0199DB100C
:1052FC005218D55C6BB2002B0ADA079B029A20007D
:10530C00D118236809B29B693A001E000A9BB0476A
:10531C00029E013633B2DDE7059A019B9446069F47
:10532C006344013701933FB2CBE723682000DB6A6B
:06533C0098470DB0F0BD22
:10534400F0B595B01D001AAB1B88040005931BAB88
:105354001E881CAB1B78089103931DAB1B78049229
:105364000293036A002B00D0C4E00C22835E8B42BC
:1053740000DC7DE00E22835E049A934278DD0623EE
:10538400039A53435B18002B72DD029B049ADB00E3
:105394009B18002B6CDD037F002B03D1AF2D01D9AB
:1053A4000135EDB2236820005B69984705235D430E
:1053B4000B9300230793984B5B190F93079A0F9B4A
:1053C4009B5C0A936B469B8B09936B469B890D935D
:1053D4006B460D9A1F8C099B5343FB181BB20E930B
:1053E40008230C930023069301220A9B206813428E
:1053F40052D06B461A8B198A039B012B3AD1029B1C
:10540400012B37D1099B52188569D919059B12B212
:1054140009B22000A847069B01335BB206930A9B9E
:105424005B080A930C9B013BDBB20C93002BDBD192
:10543400079B01335BB207930B9B013BDBB20B93DE
:10544400002BBBD1059BB3420ED0039B2268012BDA
:105454003FD1029B012B3CD105370096156A39B226
:105464000733049A2000A84723682000DB6A984782
:1054740015B0F0BD6B460C255B5F029D6A438A182C
:10548400059912B2019169460825495F0091C569E1
:105494000E992000A847BEE7059BB342BBD06B46DC
:1054A400198B1A8A039B012B0AD1029B012B07D16A
:1054B400099B5218D91912B209B285693300A8E7B9
:1054C4006B460C255B5F029D01966943521812B22C
:1054D400D9E76B460C215B5E05210D98019641438B
:1054E40002987918C0000090D56909B2049A200086
:1054F400A847B9E71A7AAD1AEDB25A68ED001B68ED
:10550400551913932B880993AB780D93EB7811936A
:105514000523EB560E930623EB560F93039B012BA7
:1055240002D8029B012B56D96B4638229B5E0B9303
:105534006B463C229B5E0C930027236820005B692A
:10554400984707970697119B069A9A4200D38BE7D0
:105554006B461B8A00260A930C9B9B18029A5343A2
:105564000A9AD3181BB210933B000D9A96424BD261
:105574005A1CD2B212920722134207D1099B0999ED
:10558400139A0133525C9BB2079209936B461B7FBB
:105594005BB2002B17DA6B46198C039B2068012B36
:1055A4001DD1029B012B1AD10A9B0F9A9A18069BB4
:1055B400D2180E9B12B2C918836989191D0009B249
:1055C400059B2000A847079B01365B00DBB20793CD
:1055D400F6B2129BC9E700230C930B93ACE76B461E
:1055E4000C229B5E0B9A039D92196A438918059AB3
:1055F40009B201926A460825525F0092C2692000EE
:105604001500109AA847DEE7069D0D9B0135FF188B
:0C561400EBB2FFB2069396E78BC20110C8
:10562000F0B5026A85B004000B00002A34D10A29C3
:1056300008D1437E0282DB00628A9B1863820120CC
:1056400005B0F0BD0D29FAD0E17E007E657E00290F
:105650000ED01026A15F0626464389190C27E65F67
:10566000B14205DD1226A15F2282EA005218628251
:105670000290E08A1221625E0190A08A1026A15F4A
:10568000009003952000FFF75DFE0622237E534322
:10569000228A9B182382D2E70A2905D1002303829C
:1056A000127B437E5343C7E70D29C8D0117A8B4242
:1056B000C5D3907A9842C2D3591AC9B25068C9006A
:1056C0004518AF78002F28D0E978002925D0E17E51
:1056D000207E667E002913D005216956C9194143F1
:1056E0008C461021675EBC440C21675EBC4507DD1B
:1056F0001227E15F00272782127B724352186282D1
:105700000290E08A1221625E0190A08A1027E15F78
:10571000009003962000FFF715FE2B79227EB6E756
:10572000002900D101310176002A00D101324276F0
:025730007047C0
:0A57320010B50A00FFF7F3FF10BDE9
:02573C007047B4
:0C573E0010B50368C9B21B68984710BD85
:0E574A008B23002249009B00C161C2507047B2
:0C57580010B5036801211B6B984710BDC1
:0C57640010B503689C6B0123A04710BD2A
:1057700030B58B248025A400025903006D00002061
:10578000AA4206D0501C185101209B182D33FF331C
:04579000197030BD9F
:06579400FC30C06A704702
:02579A00704756
:08579C008C239B00C1507047F3
:0857A4008D239B00C1507047EA
:1057AC000300FC33DA6A002A0ED0DA6A002A0BD026
:1057BC009A6A013080189A6AC07F0132D2B29A621A
:0E57CC00DA6A013ADA62704701204042FBE7D8
:1057DA000300FC33DA6A002A04D09B6A0130C0183D
:0A57EA00C07F704701204042FBE73A
:1057F40070B5036804005B6A9847402009F00EF90D
:1058040005001A23E25E1823E15E05F04FFA656194
:0258140070BD65
:1058180070B5036886B05B6A05000E0098470C20D7
:1058280009F0FAF804001A23EA5E1823E95E05F085
:1058380069FA710020002C6105F082FABC2009F099
:10584800EBF800260400144B310003600661403079
:1058580009F03AFB2000543009F0D2FA80220F4BAD
:105868001201009318213300200009F0CDFB8E238C
:105878009B00EC500A4B02A905930A4B20000393A6
:105888000295049609F0CAFB059BB34202D09B68B7
:1058980002A8984706B070BD50E10110F0C701108A
:0858A800E4C70110F9590010DA
:0A58B00010B50C220DF01CF910BD1C
:1058BA0070B58B25AD00435906001400D01880221C
:1058CA005200904200D9D41A30002D30FF30C0184F
:1058DA0022000DF008F9735920001B19735170BD8D
:1058EA0070B5050040690C00002801D005F001F9E7
:0E58FA002869002802D0210005F01DFA70BDBB
:1059080070B504004069002804D00368DB68984734
:10591800002363612369002B13D08E25AD006059E5
:1059280009F0F2FB605909F03DFC6059002802D0EB
:1059380003685B6898470C21206909F09DF80023EB
:04594800236170BDAA
:10594C008B2330B502000C0001259B00C35885B099
:10595C004069D1696C40002B07D100942B0003AA3D
:10596C0005F0F6F8C0B205B030BD2D32FF32009410
:0C597C0005F0CEF8431E98414000F4E70F
:10598800F0B515000122C3B05340009302AE0400E5
:1059980049002B003200406905F0DCF8002817D1D7
:1059A8002300FF27FC330134A84212D08021DA6A91
:1059B80049008A420AD05A6A315CA218D1775A6AD9
:1059C80001323A405A62DA6A0132DA620130EBE7B0
:0859D8000025280043B0F0BDDA
:1059E00010B582684368006851104018D20701D58D
:0859F0000268D358984710BD6E
:1059F800F0B580270500BDB07F00286905F0A9F93A
:105A08000328FAD8FAF72CFD470219198D239B00B1
